:10000000C2B0C2B175A00C11537590FF75B0EFE589
:1000100090B4FF1B75B0DFE590B4FF1875B0BFE575
:1000200090B4FF1575B07FE590B4FF1202000C90FC
:100030000300800D90030880089003108003900354
:1000400018135003A380FAE49375B009F5A0115377
:1000500002000CD2B2115CC2B2115C227B327CFF76
:05006000DCFEDBFA22CA
:100300004145494D5155592342464A4E52565A404D
:1003100043474B4F53572C3A44484C5054582E2186
:00000001FF
