:100300004145494D5155592342464A4E52565A404D
:1003100043474B4F53572C3A44484C5054582E2186
:10000000C2B0C2B175A00C116D7590FF75B009E555
:1000100090B4FFF81176E590B4FF0280F71176E511
:1000200090B4FF0280EE75B0EFE590B4FF1B75B0A1
:10003000DFE590B4FF1875B0BFE590B4FF1575B05B
:100040007FE590B4FF12020014900300800D90032E
:100050000880089003108003900318135003A380B6
:10006000FAE49375B009F5A0116D02000CD2B2113B
:0F00700076C2B21176227B327CFFDCFEDBFA22F5
:00000001FF
