:10000000C2B0C2B175A00C11647590FF75B009E55E
:1000100090B4FFF8116DE590B4FF0280F775B0EF72
:10002000E590B4FF1B75B0DFE590B4FF1875B0BF65
:10003000E590B4FF1575B07FE590B4FF120200148F
:10004000900300800D9003088008900310800390B7
:100050000318135003A380FAE49375B009F5A011B7
:100060006402000CD2B2116DC2B2116D227B327CDF
:06007000FFDCFEDBFA22BA
:100300004145494D5155592342464A4E52565A404D
:1003100043474B4F53572C3A44484C5054582E2186
:00000001FF
